:020000040000FA
:1000000060040020F100000017010000D50000008E
:1000100000000000000000000000000000000000E0
:100020000000000000000000000000001B010000B4
:1000300000000000000000001D0100001F01000082
:100040002101000021010000210100002101000028
:100050002101000021010000210100002101000018
:100060002101000021010000210100002101000008
:1000700021010000210100002101000021010000F8
:1000800021010000210100008D0400002101000079
:1000900021010000210100002101000021010000D8
:1000A00021010000210100002101000021010000C8
:1000B00021010000210100002101000021010000B8
:1000C0000348854600F09AF800480047D510000024
:1000D0006004002004207146084202D0EFF309803A
:1000E00001E0EFF308807146004A10476504000004
:1000F0000C480D4901600D4901600D4901600D4A30
:100100000D4911600D4A0E491160002101600D4832
:1001100080470D480047FEE7FEE7FEE7FEE7FEE703
:10012000FEE700000001004059000000160000003A
:100130008800000024000040A55A00008002004012
:1001400001000000D5090000C100000030B50B46D9
:10015000014600202022012409E00D46D5409D42A1
:1001600005D31D469540491B254695404019154627
:10017000521E002DF1DC30BD03460B439B0703D01C
:1001800009E008C9121F08C0042AFAD203E00B785C
:100190000370401C491C521EF9D27047F0B51FB4C1
:1001A0000646002082B005464024019100901BE0E5
:1001B000019922460F46304600F042F8049A059B0A
:1001C000801A994110D310461946224600F028F8AB
:1001D000361A8F410197224601200021009F00F02E
:1001E0001FF838184D4100902046641E0028DFDCBF
:1001F000019B00982946324607B0F0BD064C012508
:10020000064E05E0E36807CC2B430C3C98471034BE
:10021000B442F7D3FFF758FF38130000581300001B
:1002200010B5202A04DB0146203A9140002010BD81
:10023000914020239C1A0346E3401943904010BD8F
:1002400010B5202A04DB0846203AD040002110BD1A
:100250000B46D340D0402024A21A914008431946AF
:1002600010BD00000EB509490EC900910192810F21
:100270008A00029369468A58054951184A68C3069C
:10028000DB0E0120984002434A600EBD00130000BF
:100290000002004002490A6802430A6070470000F9
:1002A0000002004010B500F04BFB0148006810BD93
:1002B0000000002002480068C00700D001487047D5
:1002C000000200400048E80104480068800702D5A9
:1002D0000120C0037047002070470000000200406A
:1002E00010B500F02DFB0448406B41070348490F4F
:1002F0000068C84010BD000000020040000000205F
:1003000010B500F01DFB0448406B4006410F034848
:100310000068C84010BD000000020040000000203E
:1003200008B511A000681149009009680020052255
:100330001204114216D1080301D50D4800E00D4802
:100340008A030FD40A04920F6B469B5CCA0589048A
:10035000D20DC90E891C8008921C59435043FFF7E7
:10036000F5FE800008BD00000102020440020040CA
:10037000001BB7000048E801F3B5124881B00569D9
:100380000F4610200F4C0540403C206804263043A7
:100390002060102000F050F82069072108432061F8
:1003A000206A0009000138432062206988430199CE
:1003B0000843206100F0C4FA002D02D12068B04348
:1003C0002060FEBD40020040F0B5194B88B0F0CB74
:1003D000009401ACE0C478CB04AF78C7840A23064C
:1003E0001B0E0ED003039B0F9B0004ADEB58114D69
:1003F0005B19E5B28405E40EA5401C68AC431443C8
:100400001C60420E520710D08200920F92006B4681
:100410009A58084B103BD21803015B0FC001C00E65
:100420008340106898430843106008B0F0BD000096
:10043000E01200002002004010B504460749084BB6
:1004400005E00A46491E002A01DC002010BD1A6999
:1004500020469043F5D1012010BD000080F520001A
:1004600040020040044603A000F0C4FB204600F018
:10047000AFFEFEE7496E2048617264204661756CEC
:10048000742048616E646C65720A000010B50849FA
:10049000C8684A69D243D20706D00649CA68002A0A
:1004A00001D0C968884710BD084600F005F810BDA6
:1004B0000000084010000020416901221143416101
:1004C00070470168802211430160704770B505468E
:1004D0000F480E46854202D1FFF712FF01E0FFF7F9
:1004E000FFFE04460A22B1005043FFF72FFE0A2107
:1004F000401DFFF72BFE401E286129684022114352
:10050000296081002046091DFFF720FE70BD000014
:100510000010084052001A43012905D0022905D0D5
:10052000032905D04260704782617047C2617047FD
:10053000026270475200012905D0022905D0032923
:1005400005D04262704782627047C26270470263A0
:1005500070470000FEB5044600236846037003712F
:100560003C263949394D0372602C65D00846384F16
:100570008068802C13D00A469268521CA82C30D078
:10058000B82C40D0C02C52D0882C53D0A02C53D0A3
:10059000002C53D021462FA000F02CFBFEBDAA68F2
:1005A000D3B26A4613700A78521CD2B20A70012A7A
:1005B00013D08018801E80B23B5469460B70C0B2C5
:1005C000194600F027FB02AA6946204600F0A6F86B
:1005D0002868B0430C302860FEBD8B601946104679
:1005E000EFE7385C6B4618708A6001AA02A92046C2
:1005F00000F094F86B461979A9602868B0430C3074
:100600002860A82010E0385C6B4618708A6001AA48
:1006100002A9204600F082F86B461979A960286883
:10062000B0430C302860B82000F0F4FAFEBD02AAF6
:100630001146CAE70B70CBE70B70F8E72868B043A8
:100640001C302860C4E700001000002000000840B3
:1006500020000020493243785F536C617665545224
:10066000782053746174757320307825782069730D
:10067000204E4F542070726F6365737365640A0077
:1006800010B5234C21492046FFF720FF00231522F7
:1006900019462046FFF73EFF002335220121204660
:1006A000FFF738FF0023552202212046FFF732FFD3
:1006B0000023752203212046FFF72CFF0122002191
:1006C0002046FFF737FF042201212046FFF732FFC3
:1006D000012202212046FFF72DFF0422032120469C
:1006E000FFF728FF2046FFF7ECFE012009498004B0
:1006F000086021683C2081430C3121600020064ABB
:1007000001461154401CFF28FBD910BDA0860100F2
:100710000000084000E100E020000020F8B50023C0
:100720002F4C1D46602804D101266671E570A57026
:1007300065706779012F0FD02A4E022F18D0032F32
:1007400024D0042F07D131464039A8282FD0C02803
:1007500040D0B82837D0F8BD8028FCD120780128B7
:1007600004D1217AE17020A000F044FA02200BE0CD
:10077000802803D0A028EED1042005E0A0780978D5
:100780003154401CA07003206071F8BDA02807D030
:100790008028FAD1A07809783154401CA070F8BDA7
:1007A000A17819A000F026FAA078207116E00C4874
:1007B000007906E0C71A7F18F55C203F5B1CFD77C7
:1007C000DBB28342F6D36078085C10706078401C1E
:1007D0006070F8BD617813A000F00CFA6571F8BD87
:1007E0001000002060010020736C6176655F726507
:1007F0006769737465725F61646472203D2030784C
:100800002532580D0A000000675F753846726F6D1B
:100810004D61737465724C656E203D2025640D0A30
:1008200000000000675F7538546F4D617374657226
:100830004C656E203D2025640D0A0D0A0000000065
:1008400010B503A000F0D6F909490848C86010BDEA
:10085000493243785F536C6176655F6578616D708E
:100860006C652073746172740D0A000055050000F8
:100870001000002070B559201F4C162188222060DE
:10088000216022602368002BF9D00420FFF702FDCD
:100890001020FFF7D1FD00210720FFF76DFD174D58
:1008A0002846FFF7DFFC0321002209062846FFF750
:1008B0008BFDA806C16BFF22120491433322520420
:1008C0008918C1630E4D2846FFF7CCFC0721002292
:1008D00009022846FFF778FD0748F838FFF7C2FC01
:1008E0000548C0380168090A09029931016000F021
:1008F00027F80020206070BD00010040103D805F9F
:100900000200805E0121020E890751188B680122C6
:10091000824013438B608868904388607047000072
:1009200006498A691202FCD408600A2804D1886941
:100930000002FCD40D200860704700000000074052
:10094000F8B51D4D28691C4944071CA0006800909B
:10095000640F00204031096805221204114216D1AB
:10096000080301D5164800E016488A030FD40A048C
:10097000920F6B469B5CCA058904D20DC90E891C77
:100980008008921C59435043FFF7E0FB80000E4E55
:10099000022CB06002D00D49A0000858296A09074E
:1009A000090F491CFFF7D2FB094930604A10801833
:1009B000FFF7CCFB7060F8BD0002004001020204AA
:1009C000001BB7000048E80100000020781200007A
:1009D00040420F0010B559210A48162388220160B1
:1009E000036002600468002CF9D007490B680722F5
:1009F000120593430B600B6813430B6000210160E9
:100A000010BD00000001004000020040F8B50C4697
:100A1000064600F045F8014600901E480027006891
:100A2000FFF794FB451C0020306070611A49009864
:100A3000884205D87D20C000844205D2044606E0E5
:100A4000642C01D2642402E08C4200D90C46009848
:100A5000884208D801461148FFF778FB01467D20FF
:100A6000C000604305E0FFF771FB6043070E02D052
:100A7000791CFFF76BFB706001208007074337602C
:100A8000002D02D000BF6D1EFCD130688001FCD467
:100A9000F8BD00000000002040420F0000CA9A3B51
:100AA00010B588B00446202215496846FFF764FB5C
:100AB000144B144A14482033944202D14069000A6E
:100AC0000BE09C4202D14069000B06E00F494069EF
:100AD0008C4201D1000C00E0000D4107490F0229B2
:100AE00004D088006946085808B010BD944201D06F
:100AF0009C4202D1FFF7F4FBF6E7FFF701FCF3E7B6
:100B000018130000000005400002004000100540DE
:100B1000F0B587B00F46044600252E4618222E4910
:100B20006846FFF729FB2D492D482E4A8C4205D1F6
:100B30004369006A5B015D0F000A0FE02A4B9C428B
:100B400006D14369006A5B005D0F0004060F07E0F1
:100B5000944205D1C369006B5B015D0F0607360F38
:100B6000002020630320E060A068204B1840A060B4
:100B7000012D02D0042D04D00DE0FFF7D1FB019030
:100B800009E08C4201D0944202D1FFF7A9FB01E0B9
:100B9000FFF7B6FB0490002F1BD0A9006846405811
:100BA000711CFFF7D3FA0546790840183946FFF75C
:100BB000CDFA0F49801E884207D9F90068183946D6
:100BC000FFF7C4FA0009801E02E003210907084369
:100BD000606207B0F0BD00009812000000000740FE
:100BE0000002004000200740001007400FFFF0FF08
:100BF000FFFF00000FB410B503A9044B044A02988C
:100C000000F028F810BC08BC04B01847C910000058
:100C10000C00002010B50A46014602A0FFF7EAFFCB
:100C200010BD00003078253258203A203078253227
:100C3000580D0A0002E008C8121F08C1002AFAD1A4
:100C400070477047002001E001C1121F002AFBD14C
:100C500070470000FFB591B00F460546002606E03C
:100C600025280AD0149A139990476D1C761C287871
:100C70000028F5D1304615B0F0BD002400940121C4
:100C8000F34A029400E004436D1C2B780846203B95
:100C900098401042F7D128782A280ED002212878CF
:100CA0000246303A092A15D8009A0A235A43303AA4
:100CB00080180C436D1C0090F1E701CF00900028D4
:100CC00005DA0120400304430098404200900220CE
:100CD00004436D1C28782E2815D10420044368781D
:100CE0006D1C2A280AD101CF6D1C02900BE00299DD
:100CF0000A225143303940186D1C02902878014671
:100D000030390929F3D928786C2810D006DC4C2812
:100D10001AD068280ED06A2817D104E0742813D09E
:100D20007A2812D110E00120400504430CE0012193
:100D3000090501E0032109050C436978814203D1CB
:100D40000120000524186D1C6D1C287803906E2866
:100D50001ED00CDC632831D004DC00288AD058284F
:100D600011D1B2E064287BD069280CD178E07328D7
:100D70002DD004DC6F2870D0702804D1A7E075282E
:100D80006CD078286BD0149A13999047761C62E047
:100D90006002400F022807D003280AD004283868D0
:100DA0000AD006603F1D56E03868F11706604160C2
:100DB000F8E738680680F5E70670F3E738786946A3
:100DC00008740020487404A80390012003E03868E8
:100DD00003900020C0433F1D61070FD5002101E0B3
:100DE0000199491C029A0191914213DA8142F7DB81
:100DF000019A0399895C0029F2D10BE0002101E0FE
:100E00000199491C01918142FADB019A0399895C9D
:100E10000029F5D101990098139A401A00902146B3
:100E2000149B00F03BF901998019461807E00398DC
:100E300003990078491C0391149A139990470198DB
:100E4000401E0190401CF2D12146149B139A009839
:100E500000F014F986196D1C09E741E033E034E035
:100E60000A200021049005916002410F022905D05B
:100E700001CFC2179446032905D007E0FF1DFF08E4
:100E8000FF0003CF06E000B2C2179446042902D146
:100E900040B2C1178C4600226146944506DA0A46E4
:100EA0000021404291418C462D2102E0210504D5CC
:100EB0002B216A461176012103E0E10701D02021B0
:100EC000F7E7019154E00A200BE0102009E0102020
:100ED000049000210420044308200591029003E0BF
:100EE00008200021059104906002410F022905D0DD
:100EF00001CF00229446032906D006E0FF1DFF081B
:100F0000FF0003CF8C4603E080B2042900D1C0B2B9
:100F10000021019121072BD50399702906D0049A4D
:100F20001021059B4A401A4305D00EE040216A4635
:100F30001176012108E06146014306D030216A465E
:100F400011760399517602210191049A0821059B9B
:100F50004A401A430CD16146014301D1610707D5CC
:100F600030216A461176012101910299491E0291B0
:100F70000399582904D037A103910FA90F910DE0CF
:100F800039A1F9E76146059B049AFFF707F9039B2E
:100F90008C469B5C0F9A521E0F9213706146014360
:100FA000F0D10F9807A9081A20300390600704D5E4
:100FB000012000048443029801E00120029003997B
:100FC000884201DD401A00E000204118029001989B
:100FD00009180098401A0090E00306D42146149B9B
:100FE000139A009800F05AF886190020049008E03F
:100FF00006A9085C149A139990470498401C761C23
:10100000049001998842F3DBE0030CD52146149B40
:10101000139A009800F042F8861904E0149A3020E0
:1010200013999047761C0299481E02900029F5DC1E
:1010300008E00F980F990078491C0F91149A1399A2
:101040009047761C0399481E03900029F1DCFBE6CB
:10105000092801003031323334353637383961628E
:101060006364656600000000303132333435363752
:10107000383941424344454600000000F8B5044673
:1010800000251E461746880404D405E03946202072
:10109000B0476D1C641EF9D52846F8BDFFB504465F
:1010A000002581B01E46C80301D5302700E0202767
:1010B000880404D505E038460399B0476D1C641ECA
:1010C000F9D5284605B0F0BD10B50446FFF728FC59
:1010D000204610BDFFF7CEFB1848FFF713FCE121B7
:1010E00049021748FFF714FDFFF7DCF8014615A089
:1010F000FFF780FDFFF7DEF8014619A0FFF77AFD44
:10110000FFF7E2F801461CA0FFF774FDFFF7E8F8CF
:1011100001461FA0FFF76EFDFFF7F2F8014623A07E
:10112000FFF768FDFFF7ACFA274C284DFFF788FB67
:1011300021462846FFF76AFCF8E70000100000048B
:10114000000007400D0A434C4B5F47657443505500
:1011500046726571203A202538640D0A00000000AF
:10116000434C4B5F47657448585446726571203A4A
:10117000202538640D0A0000434C4B5F4765744CD2
:10118000585446726571203A202538640D0A0000D3
:10119000434C4B5F47657450434C4B30467265710E
:1011A000203A202538640D0A00000000434C4B5FB4
:1011B00047657450434C4B3146726571203A202587
:1011C00038640D0A0000000040420F000000054096
:1011D00010B50446016810A0FFF70CFD11A061686E
:1011E000FFF708FD12A0A168FFF704FD13A0E16856
:1011F000FFF700FD14A02169FFF7FCFC15A0616951
:10120000FFF7F8FC16A0A169FFF7F4FC17A0E1694D
:10121000FFF7F0FC10BD0000723020203D20307838
:1012200025780A00723120203D20307825780A0088
:10123000723220203D20307825780A007233202039
:101240003D20307825780A00723132203D203078F8
:1012500025780A006C7220203D20307825780A001D
:10126000706320203D20307825780A00707372204A
:101270003D20307825780A000048E8010080000011
:1012800000D8B80500960000006CDC0200000000E9
:1012900000000000006CDC020048E80100000000D3
:1012A00000800000006CDC020000000000960000DE
:1012B0000048E8010000000000800000006CDC0233
:1012C00000000000009600000048E8010000000057
:1012D00000800000006CDC020000000000960000AE
:1012E0000000000004000000080000000C000000E6
:1012F00000000000000000000000000010000000DE
:1013000000000000040000000800000000000000D1
:1013100004000000080000000048E8010080000010
:101320000000000000000000000000000096000027
:1013300000000000006CDC025813000000000020D8
:1013400020000000340C0000781300002000002072
:1013500040040000440C000000D8B8056000000004
:1013600000D8B805000000000000000000000000E8
:08137000000000000000000075
:04000005000000F106
:00000001FF
