:020000040000FA
:1000000068040020F100000017010000D500000086
:1000100000000000000000000000000000000000E0
:100020000000000000000000000000001B010000B4
:1000300000000000000000001D0100001F01000082
:100040002101000021010000210100002101000028
:100050002101000021010000210100002101000018
:100060002101000021010000210100000D0C000011
:1000700021010000210100002101000021010000F8
:100080002101000021010000C9040000210100003D
:1000900021010000210100002101000021010000D8
:1000A00021010000210100002101000021010000C8
:1000B00021010000210100002101000021010000B8
:1000C0000348854600F09AF800480047FD110000FB
:1000D0006804002004207146084202D0EFF3098032
:1000E00001E0EFF308807146004A1047A1040000C8
:1000F0000C480D4901600D4901600D4901600D4A30
:100100000D4911600D4A0E491160002101600D4832
:1001100080470D480047FEE7FEE7FEE7FEE7FEE703
:10012000FEE700000001004059000000160000003A
:100130008800000024000040A55A00008002004012
:10014000010000005D0A0000C100000030B50B4650
:10015000014600202022012409E00D46D5409D42A1
:1001600005D31D469540491B254695404019154627
:10017000521E002DF1DC30BD03460B439B0703D01C
:1001800009E008C9121F08C0042AFAD203E00B785C
:100190000370401C491C521EF9D27047F0B51FB4C1
:1001A0000646002082B005464024019100901BE0E5
:1001B000019922460F46304600F042F8049A059B0A
:1001C000801A994110D310461946224600F028F8AB
:1001D000361A8F410197224601200021009F00F02E
:1001E0001FF838184D4100902046641E0028DFDCBF
:1001F000019B00982946324607B0F0BD064C012508
:10020000064E05E0E36807CC2B430C3C98471034BE
:10021000B442F7D3FFF758FF7414000094140000A1
:1002200010B5202A04DB0146203A9140002010BD81
:10023000914020239C1A0346E3401943904010BD8F
:1002400010B5202A04DB0846203AD040002110BD1A
:100250000B46D340D0402024A21A914008431946AF
:1002600010BD00000EB509490EC900910192810F21
:100270008A00029369468A58054951184A68C3069C
:10028000DB0E0120984002434A600EBD3C14000082
:100290000002004002490A6802430A6070470000F9
:1002A0000002004010B500F08FFB0148006810BD4F
:1002B0000000002002480068C00700D001487047D5
:1002C000000200400048E80104480068800702D5A9
:1002D0000120C0037047002070470000000200406A
:1002E00010B500F071FB0448406B41070348490F0B
:1002F0000068C84010BD000000020040000000205F
:1003000010B500F061FB0448406B4006410F034804
:100310000068C84010BD000000020040000000203E
:1003200008B511A000681149009009680020052255
:100330001204114216D1080301D50D4800E00D4802
:100340008A030FD40A04920F6B469B5CCA0589048A
:10035000D20DC90E891C8008921C59435043FFF7E7
:10036000F5FE800008BD00000102020440020040CA
:10037000001BB7000048E801F3B5124881B00569D9
:100380000F4610200F4C0540403C206804263043A7
:100390002060102000F050F82069072108432061F8
:1003A000206A0009000138432062206988430199CE
:1003B0000843206100F008FB002D02D12068B04303
:1003C0002060FEBD40020040F0B5194B88B0F0CB74
:1003D000009401ACE0C478CB04AF78C7840A23064C
:1003E0001B0E0ED003039B0F9B0004ADEB58114D69
:1003F0005B19E5B28405E40EA5401C68AC431443C8
:100400001C60420E520710D08200920F92006B4681
:100410009A58084B103BD21803015B0FC001C00E65
:100420008340106898430843106008B0F0BD000096
:100430001C1400002002004010B504460749084B78
:1004400005E00A46491E002A01DC002010BD1A6999
:1004500020469043F5D1012010BD000080F520001A
:100460004002004010B501229103024800F004F858
:1004700010BD000040400040F0B5002301273C467D
:100480009C400C4208D005685C000326A640B5439A
:100490001646A640354305605B1C102BEFD3F0BD1C
:1004A000044603A000F03AFC204600F02FFFFEE7D0
:1004B000496E2048617264204661756C7420486101
:1004C0006E646C65720A000010B50849C8684A6914
:1004D000D243D20706D00649CA68002A01D0C968AB
:1004E000884710BD084600F005F810BD0000084020
:1004F00014000020416901221143416170470168E5
:10050000802211430160704770B505460F480E46C2
:10051000854202D1FFF7F4FE01E0FFF7E1FE044659
:100520000A22B1005043FFF711FE0A21401DFFF7D8
:100530000DFE401E28612968402211432960810078
:100540002046091DFFF702FE70BD000000100840A4
:1005500052001A43012905D0022905D0032905D0EC
:100560004260704782617047C261704702627047A3
:100570005200012905D0022905D0032905D0426285
:10058000704782627047C262704702637047000022
:10059000FEB5044600236846037003713C263849C3
:1005A000384D0372602C64D00846374F8068802C29
:1005B00013D00A469268521CA82C2ED0B82C3FD0DB
:1005C000C02C51D0882C52D0A02C52D0002C52D00C
:1005D00021462EA000F0A2FBFEBDAA68D3B26A4657
:1005E00013700A78521CD2B20A70012A11D08018F6
:1005F000801E80B23B54C0B2194600F09FFB02AA95
:100600006946204600F0D8F82868B0430C302860CE
:10061000FEBD8B6019461046EFE7385C6B461870DC
:100620008A6001AA6946204600F0C6F86B46187831
:10063000A8602868B0430C302860A820197910E021
:10064000385C6B4618708A6001AA6946204600F043
:10065000B3F86B461979A9602868B0430C3028605C
:10066000B82000F06BFBFEBD02AA1146C9E70B7073
:10067000CAE70B70F8E72868B0431C302860C3E76E
:100680001400002000000840240000204932437874
:100690005F536C617665545278205374617475733E
:1006A0002030782578206973204E4F542070726F67
:1006B0006365737365640A0010B5234C21492046B5
:1006C000FFF722FF0023152219462046FFF740FFBF
:1006D0000023352201212046FFF73AFF002355224F
:1006E00002212046FFF734FF002375220321204614
:1006F000FFF72EFF012200212046FFF739FF0422D9
:1007000001212046FFF734FF012202212046FFF796
:100710002FFF042203212046FFF72AFF2046FFF780
:10072000EEFE012009498004086021683C208143D5
:100730000C3121600020064A01461154401CFF285C
:10074000FBD910BD801A06000000084000E100E05F
:1007500024000020F8B500200E4E05463554401CFC
:10076000C0B24028FAD300240B4F0CE00949001B0B
:1007700040318019095D2038C177325D07A000F053
:10078000CDFA641CE4B238798442EFD3BD707D7039
:100790003D71F8BD240100201400002046726F6DE9
:1007A000203A2030782532582C20546F203A2030BF
:1007B000782532582C0D0A00F8B500262B4C15462A
:1007C000602804D101226271E670A67066706279B9
:1007D000012A16D00427264B022A1ED0032A2AD02B
:1007E000042A0DD11F46403FA82835D0C02836D056
:1007F000B82805D16078385C28706078401C60703B
:10080000F8BD8028FCD12078012804D1217AE1703C
:1008100018A000F083FA02200BE0802803D0A02863
:10082000EED16771F8BDA07809781954401CA0700A
:1008300003206071F8BDA02807D08028FAD1A078E5
:1008400009781954401CA070F8BDA17811A000F0DF
:1008500065FAA0782071E4E7FFF77CFFCAE76178CA
:1008600013A000F05BFA6671F8BD000014000020D0
:1008700064010020736C6176655F726567697374EB
:1008800065725F61646472203D2030782532580DB6
:100890000A000000675F753846726F6D4D617374B2
:1008A00065724C656E203D2025640D0A0000000035
:1008B000675F7538546F4D61737465724C656E2057
:1008C0003D2025640D0A0D0A000000000249014880
:1008D000C8607047910500001400002070B55920D1
:1008E000264C162188222060216022602368002B7C
:1008F000F9D00420FFF7CEFC1020FFF79DFD00216A
:100900000720FFF739FD1E4D2846FFF7ABFC0321FA
:10091000002209062846FFF757FD1A4D2846FFF723
:10092000A1FC0121002249052846FFF74DFD0720C3
:10093000FFF798FCA807C16BFF22120491433322F2
:1009400052048918C163104D2846FFF78BFC07211C
:10095000002209022846FFF737FD0848F838FFF75C
:1009600081FC0648C0380168090A09029931016012
:1009700000F02AF80020206070BD00000001004057
:10098000103D805F0500405F0200805E0121020E85
:10099000890751188B680122824013438B60886855
:1009A000904388607047000006498A691202FCD4AF
:1009B00008600A2804D188690002FCD40D20086070
:1009C0007047000000000740F8B51D4D28691C491C
:1009D00044071CA000680090640F002040310968A3
:1009E00005221204114216D1080301D5164800E071
:1009F00016488A030FD40A04920F6B469B5CCA0503
:100A00008904D20DC90E891C8008921C5943504399
:100A1000FFF79CFB80000E4E022CB06002D00D4907
:100A2000A0000858296A0907090F491CFFF78EFB27
:100A3000094930604A108018FFF788FB7060F8BDE4
:100A40000002004001020204001BB7000048E80158
:100A500000000020B413000040420F0010B55921DF
:100A60000A48162388220160036002600468002C93
:100A7000F9D007490B680722120593430B600B68F6
:100A800013430B600021016010BD00000001004015
:100A90000002004010B50A4C7D220121D200C90697
:100AA000204600F093F8206821060843206088144F
:100AB00004490860206889050843206010BD0000D3
:100AC0002010054000E100E0F8B50C46064600F0B5
:100AD00045F8014600901E4800270068FFF736FBE6
:100AE000451C0020306070611A490098884205D882
:100AF0007D20C000844205D2044606E0642C01D269
:100B0000642402E08C4200D90C460098884208D840
:100B100001461148FFF71AFB01467D20C0006043E3
:100B200005E0FFF713FB6043070E02D0791CFFF7C7
:100B30000DFB70600120800707433760002D02D055
:100B400000BF6D1EFCD130688001FCD4F8BD0000F0
:100B50000000002040420F0000CA9A3B10B588B048
:100B60000446202215496846FFF706FB144B144A39
:100B700014482033944202D14069000A0BE09C42A1
:100B800002D14069000B06E00F4940698C4201D157
:100B9000000C00E0000D4107490F022904D0880035
:100BA0006946085808B010BD944201D09C4202D159
:100BB000FFF796FBF6E7FFF7A3FBF3E754140000FB
:100BC000000005400002004000100540F7B5174640
:100BD0000646FFF7C3FF054600244008B84201D887
:100BE000022008E039462846FFF7B0FA040E02D08A
:100BF000611CFFF7ABFA0199214331607060641CFE
:100C0000604301462846FFF7A1FAFEBD08498868FF
:100C1000C007C00F0BD00120886006490888421C1D
:100C20000A807D22D200904201D3002008807047C4
:100C30002010054010000020F0B587B00F46044694
:100C400000252E4618222E496846FFF795FA2D49B1
:100C50002D482E4A8C4205D14369006A5B015D0F25
:100C6000000A0FE02A4B9C4206D14369006A5B00F0
:100C70005D0F0004060F07E0944205D1C369006BC5
:100C80005B015D0F0607360F002020630320E06044
:100C9000A068204B1840A060012D02D0042D04D084
:100CA0000DE0FFF73DFB019009E08C4201D094423A
:100CB00002D1FFF715FB01E0FFF722FB0490002FA4
:100CC0001BD0A90068464058711CFFF73FFA054643
:100CD000790840183946FFF739FA0F49801E8842D3
:100CE00007D9F90068183946FFF730FA0009801E65
:100CF00002E0032109070843606207B0F0BD00006D
:100D0000D41300000000074000020040002007400C
:100D1000001007400FFFF0FFFFFF00000FB410B5F9
:100D200003A9044B044A029800F028F810BC08BC40
:100D300004B01847F11100000C00002010B50A465D
:100D4000014602A0FFF7EAFF10BD0000307825320F
:100D500058203A2030782532580D0A0002E008C8A1
:100D6000121F08C1002AFAD170477047002001E025
:100D700001C1121F002AFBD170470000FFB591B0DE
:100D80000F460546002606E025280AD0149A139936
:100D900090476D1C761C28780028F5D1304615B098
:100DA000F0BD002400940121F34A029400E00443C2
:100DB0006D1C2B780846203B98401042F7D12878CC
:100DC0002A280ED0022128780246303A092A15D85E
:100DD000009A0A235A43303A80180C436D1C009045
:100DE000F1E701CF0090002805DA01204003044319
:100DF000009840420090022004436D1C28782E2861
:100E000015D10420044368786D1C2A280AD101CF2B
:100E10006D1C02900BE002990A22514330394018B0
:100E20006D1C02902878014630390929F3D92878B9
:100E30006C2810D006DC4C281AD068280ED06A28FE
:100E400017D104E0742813D07A2812D110E00120C1
:100E5000400504430CE00121090501E003210905D7
:100E60000C436978814203D10120000524186D1CD0
:100E70006D1C287803906E281ED00CDC632831D0BE
:100E800004DC00288AD0582811D1B2E064287BD035
:100E900069280CD178E073282DD004DC6F2870D03D
:100EA000702804D1A7E075286CD078286BD0149AEC
:100EB00013999047761C62E06002400F022807D029
:100EC00003280AD0042838680AD006603F1D56E07F
:100ED0003868F11706604160F8E738680680F5E782
:100EE0000670F3E73878694608740020487404A84F
:100EF0000390012003E0386803900020C0433F1DA9
:100F000061070FD5002101E00199491C029A019166
:100F1000914213DA8142F7DB019A0399895C002937
:100F2000F2D10BE0002101E00199491C01918142BD
:100F3000FADB019A0399895C0029F5D1019900989F
:100F4000139A401A00902146149B00F03BF9019936
:100F50008019461807E0039803990078491C03910B
:100F6000149A139990470198401E0190401CF2D1A9
:100F70002146149B139A009800F014F986196D1CF1
:100F800009E741E033E034E00A20002104900591B4
:100F90006002410F022905D001CFC21794460329F0
:100FA00005D007E0FF1DFF08FF0003CF06E000B2F9
:100FB000C2179446042902D140B2C1178C460022C0
:100FC0006146944506DA0A460021404291418C462A
:100FD0002D2102E0210504D52B216A46117601213D
:100FE00003E0E10701D02021F7E7019154E00A2056
:100FF0000BE0102009E0102004900021042004439D
:1010000008200591029003E008200021059104903A
:101010006002410F022905D001CF00229446032926
:1010200006D006E0FF1DFF08FF0003CF8C4603E05B
:1010300080B2042900D1C0B20021019121072BD533
:101040000399702906D0049A1021059B4A401A433F
:1010500005D00EE040216A461176012108E0614684
:10106000014306D030216A46117603995176022158
:101070000191049A0821059B4A401A430CD161460C
:10108000014301D1610707D530216A46117601215C
:1010900001910299491E02910399582904D037A160
:1010A00003910FA90F910DE039A1F9E76146059B66
:1010B000049AFFF773F8039B8C469B5C0F9A521EB1
:1010C0000F92137061460143F0D10F9807A9081AD7
:1010D00020300390600704D5012000048443029867
:1010E00001E0012002900399884201DD401A00E0EE
:1010F000002041180290019809180098401A0090A9
:10110000E00306D42146149B139A009800F05AF885
:1011100086190020049008E006A9085C149A139927
:1011200090470498401C761C049001998842F3DB98
:10113000E0030CD52146149B139A009800F042F866
:10114000861904E0149A302013999047761C02996E
:10115000481E02900029F5DC08E00F980F990078EE
:10116000491C0F91149A13999047761C0399481EB5
:1011700003900029F1DCFBE609280100303132330D
:1011800034353637383961626364656600000000C3
:1011900030313233343536373839414243444546AD
:1011A00000000000F8B5044600251E4617468804D6
:1011B00004D405E039462020B0476D1C641EF9D5E3
:1011C0002846F8BDFFB50446002581B01E46C80379
:1011D00001D5302700E02027880404D505E03846F3
:1011E0000399B0476D1C641EF9D5284605B0F0BDC3
:1011F00010B50446FFF7D8FB204610BDFFF76EFB85
:101200001C48FFF7C3FBE12149021B48FFF714FD0F
:10121000FFF748F8014619A0FFF780FDFFF74AF8ED
:1012200001461DA0FFF77AFDFFF74EF8014620A00A
:10123000FFF774FDFFF754F8014623A0FFF76EFD9A
:10124000FFF75EF8014627A0FFF768FDFFF734FAC5
:10125000FFF708F9FFF71EFC294E2A4F2A4C0125FB
:10126000FFF734FB31463846FFF72EFCA06B684091
:10127000A063F5E710000004000007400D0A434C8E
:101280004B5F47657443505546726571203A20257F
:1012900038640D0A00000000434C4B5F47657448FA
:1012A000585446726571203A202538640D0A0000B2
:1012B000434C4B5F4765744C585446726571203AF5
:1012C000202538640D0A0000434C4B5F476574507D
:1012D000434C4B3046726571203A202538640D0A24
:1012E00000000000434C4B5F47657450434C4B314A
:1012F00046726571203A202538640D0A000000000E
:1013000040420F00000005404048004010B5044630
:10131000016810A0FFF702FD11A06168FFF7FEFC55
:1013200012A0A168FFF7FAFC13A0E168FFF7F6FC32
:1013300014A02169FFF7F2FC15A06169FFF7EEFC2C
:1013400016A0A169FFF7EAFC17A0E169FFF7E6FC28
:1013500010BD0000723020203D20307825780A0032
:10136000723120203D20307825780A00723220200A
:101370003D20307825780A00723320203D203078D7
:1013800025780A00723132203D20307825780A0015
:101390006C7220203D20307825780A007063202070
:1013A0003D20307825780A00707372203D20307817
:1013B00025780A000048E8010080000000D8B80540
:1013C00000960000006CDC0200000000000000003D
:1013D000006CDC020048E801000000000080000012
:1013E000006CDC0200000000009600000048E801EC
:1013F0000000000000800000006CDC020000000023
:10140000009600000048E801000000000080000095
:10141000006CDC02000000000096000000000000EC
:1014200004000000080000000C00000000000000A4
:10143000000000000000000010000000000000009C
:10144000040000000800000000000000040000008C
:10145000080000000048E8010080000000000000D3
:1014600000000000000000000096000000000000E6
:10147000006CDC0294140000000000202400000036
:101480005C0D0000B814000024000020440400009B
:101490006C0D000000D8B8056000000000D8B80549
:1014A000000000000000000000000000000000003C
:0814B000000000000000000034
:04000005000000F106
:00000001FF
