:020000040000FA
:1000000030020020F100000017010000D5000000C0
:1000100000000000000000000000000000000000E0
:100020000000000000000000000000001B010000B4
:1000300000000000000000001D0100001F01000082
:100040002101000021010000210100002101000028
:100050002101000021010000210100002101000018
:10006000210100002101000021010000750E0000A7
:10007000AD0E00002101000021010000210100005F
:1000800021010000210100004D05000021010000B8
:1000900021010000210100002101000021010000D8
:1000A00021010000210100002101000021010000C8
:1000B00021010000210100002101000021010000B8
:1000C0000348854600F09AF800480047C91400002C
:1000D0003002002004207146084202D0EFF309806C
:1000E00001E0EFF308807146004A10472505000043
:1000F0000C480D4901600D4901600D4901600D4A30
:100100000D4911600D4A0E491160002101600D4832
:1001100080470D480047FEE7FEE7FEE7FEE7FEE703
:10012000FEE700000001004059000000160000003A
:100130008800000024000040A55A00008002004012
:1001400001000000590D0000C100000030B50B4651
:10015000014600202022012409E00D46D5409D42A1
:1001600005D31D469540491B254695404019154627
:10017000521E002DF1DC30BD03460B439B0703D01C
:1001800009E008C9121F08C0042AFAD203E00B785C
:100190000370401C491C521EF9D27047F0B51FB4C1
:1001A0000646002082B005464024019100901BE0E5
:1001B000019922460F46304600F042F8049A059B0A
:1001C000801A994110D310461946224600F028F8AB
:1001D000361A8F410197224601200021009F00F02E
:1001E0001FF838184D4100902046641E0028DFDCBF
:1001F000019B00982946324607B0F0BD064C012508
:10020000064E05E0E36807CC2B430C3C98471034BE
:10021000B442F7D3FFF758FF301700005017000023
:1002200010B5202A04DB0146203A9140002010BD81
:10023000914020239C1A0346E3401943904010BD8F
:1002400010B5202A04DB0846203AD040002110BD1A
:100250000B46D340D0402024A21A914008431946AF
:1002600010BD00000EB509490EC900910192810F21
:100270008A00029369468A58054951184A68C3069C
:10028000DB0E0120984002434A600EBDF8160000C4
:100290000002004002490A6802430A6070470000F9
:1002A0000002004010B500F00DFD0148006810BDCF
:1002B0000000002002480068C00700D001487047D5
:1002C000000200400048E80104480068800702D5A9
:1002D0000120C0037047002070470000000200406A
:1002E00010B500F0EFFC0448406B41070348490F8C
:1002F0000068C84010BD000000020040000000205F
:1003000010B500F0DFFC0448406B4006410F034885
:100310000068C84010BD000000020040000000203E
:1003200008B511A000681149009009680020052255
:100330001204114216D1080301D50D4800E00D4802
:100340008A030FD40A04920F6B469B5CCA0589048A
:10035000D20DC90E891C8008921C59435043FFF7E7
:10036000F5FE800008BD00000102020440020040CA
:10037000001BB7000048E801F3B5124881B00569D9
:100380000F4610200F4C0540403C206804263043A7
:100390002060102000F050F82069072108432061F8
:1003A000206A0009000138432062206988430199CE
:1003B0000843206100F086FC002D02D12068B04384
:1003C0002060FEBD40020040F0B5194B88B0F0CB74
:1003D000009401ACE0C478CB04AF78C7840A23064C
:1003E0001B0E0ED003039B0F9B0004ADEB58114D69
:1003F0005B19E5B28405E40EA5401C68AC431443C8
:100400001C60420E520710D08200920F92006B4681
:100410009A58084B103BD21803015B0FC001C00E65
:100420008340106898430843106008B0F0BD000096
:10043000D81600002002004010B504460749084BBA
:1004400005E00A46491E002A01DC002010BD1A6999
:1004500020469043F5D1012010BD000080F520001A
:100460004002004070B500240D4606465A2223463D
:100470002146500700F028F8054803E0315D41604F
:10048000641CA4B2AC42F9D300F004F8C0B270BD51
:10049000001003400B490868CA04800F80078018C9
:1004A0000BD0521080180BD0801806D0D04202D149
:1004B000C868C0B2704700207047C86880B27047F3
:1004C000C86870470010034010B5064CA26008438E
:1004D000184301210843206020680221084320605E
:1004E00010BD00000010034010B501229103024826
:1004F00000F004F810BD000040400040F0B50023BB
:1005000001273C469C400C4208D005685C0003264D
:10051000A640B5431646A640354305605B1C102B2C
:10052000EFD3F0BD044603A000F062FD204601F0C9
:100530004BF8FEE7496E2048617264204661756C95
:10054000742048616E646C65720A000010B5084939
:10055000C8684A69D243D20706D00649CA68002A49
:1005600001D0C968884710BD084600F005F810BDE5
:10057000000008401400002041690122114341613C
:100580007047000070B505460F480E46854202D1FF
:10059000FFF7B6FE01E0FFF7A3FE04460A22B10012
:1005A0005043FFF7D3FD0A21401DFFF7CFFD401E4A
:1005B0002861296840221143296081002046091DD5
:1005C000FFF7C4FD70BD000000100840F0B58C4678
:1005D0000127002601689E463446282529430160EC
:1005E0003C2105682D07FCD5C568482D15D004DCD5
:1005F000082D0CD0402D04D119E0502D10D0582DCD
:1006000019D005688D4318350560082506E0634656
:100610005D006D1CEDB285600BE0182501260FE032
:100620008568155573465B1E641C9C4201D20C25DF
:1006300006E0082504E08568155518250027641C88
:1006400003688B431D430560002F01D0002EC8D0E6
:100650002046F0BDFFB50126002503682A462C463A
:1006600028273B4303604F0001680907FCD5C16898
:100670004B075B0F36D1C9100B0000F0C9FC0C33DF
:100680000711090C0F0C331D0C152133F9B209E0C9
:10069000029981601AE01822012517E0282215E04E
:1006A000791CC9B2816009E08168039A11550999E2
:1006B000641C491E8C4201D20C2207E0082205E08E
:1006C0008168039A002611551822641C01683C2396
:1006D000994311430160002E01D0002DC4D0204663
:1006E00004B0F0BD01683C2291431831016008223A
:1006F000D2E75200012906D0022906D0032906D0EC
:100700001A434260704782617047C261704702625B
:100710007047F0B59E4601271346002602688C46B6
:100720003446354628210A4302603C220168090705
:10073000FCD5C16820291ED004DC08290CD018295A
:1007400004D10FE028290DD0302914D00468944337
:100750001834046008240FE061464C06240E8460BF
:1007600008240AE0754503D2595D81606D1C04E0E0
:100770001824002701E01824012601689143214331
:100780000160002F01D0002ED0D02846F0BDF0B57A
:100790009E4601270B46002601689446344635469E
:1007A00028220A4302603C2201680907FCD5C1687F
:1007B000202917D004DC08290CD0182904D10EE018
:1007C000282912D030290DD00468944318340460CD
:1007D000082408E05C06240E846008240FE06146CB
:1007E00081600CE01824012609E005998D4204D2AD
:1007F0007146495D81606D1C01E018240027016885
:10080000914321430160002F01D0002ECCD0284617
:10081000F0BD000010B5104C0E492046FFF7B2FEA7
:100820000023152219462046FFF763FF00233522D7
:1008300001212046FFF75DFF0023552202212046BB
:10084000FFF757FF0023752203212046FFF751FFD2
:1008500010BD0000A086010000000840F0B58FB078
:1008600000240B940C94054609940A940194029474
:1008700003940494059406940794B3A0089400F09C
:10088000B7FB002201A88454521C102AFBD329462E
:1008900001221E20B34D09AE57070B0000F0B8FB34
:1008A0000AB7061E3D638BB9EBB7FEB76E78A87822
:1008B000E9786A461171297951716A24009001AB77
:1008C00032462146A848FFF762FFA8A000F090FB3F
:1008D0002B693246581C2146286195E06A216A78C6
:1008E000AB7800203454401C1028FBD300933346CF
:1008F0009D48FFF7AFFEA2A000F07AFB0024315D17
:10090000A5A000F075FB6007F84202D1A4A000F09A
:100910006FFB641C102CF2D311E1002469460C75A6
:10092000A87A487502261527314605A8FFF79AFDD3
:1009300069464A7D0A7148716889642801D300209C
:1009400000E00A30688101AB2246394686480096AD
:10095000FFF71DFF85A000F04BFB2B692246581CBA
:100960002861394650E005210091012669460E753F
:100970004C750A228A751422CA7508761527052136
:1009800005A8FFF76FFD69464A7D0A718A7D4A71A5
:10099000CA7D8A710A7ECA71087201AB3246394635
:1009A0007148FFF7F4FE71A000F022FB2B6932467C
:1009B000581C2861D5E7022469460C754A7588756C
:1009C0002E20C8753E20087615260627052105A885
:1009D000FFF748FD69460A7D0A714A7D4A718A7DA2
:1009E0008A71CA7DCA710A7E0A7248723B4601AAA0
:1009F00031465D48FFF78DFE5CA000F0F9FA2B69E7
:100A00002246581C3146286166A000F0F1FA0FB06A
:100A1000F0BD04206946009008754C758C7515254D
:100A2000032105A8FFF71EFD69460A7D0A714A7D6C
:100A30004A718A7D8A71C8714B4C01AA29462046A9
:100A4000009BFFF766FE092309AA29462046FFF707
:100A5000BDFD4BA000F0CCFA0024315D4EA000F0AB
:100A6000C7FA6007F84202D14DA000F0C1FA641C39
:100A7000102CF2D363E01521102332463A48FFF7D9
:100A8000A5FD3FA000F0B4FA0024315D42A000F0C3
:100A9000AFFA6007F84204D141A000E005E000F0A1
:100AA000A7FA641C102CF0D349E015200E906620A4
:100AB0000D9012216A4611713421517156219171A4
:100AC0007821D17190211172AB215172CD21917297
:100AD000EF21D17299211173FE2151730A200090E8
:100AE00001AB21480D9A0E99FFF751FE1FA000F0AF
:100AF0007FFA2B69581C28612AA00D9A0E9900F0E4
:100B000077FA00203454401C1028FBD310200090AA
:100B100009AB15480D9A0E99FFF79CFD18A000F03F
:100B200067FA0024315D1CA000F062FA6007F84209
:100B300002D11BA000F05CFA641C102CF2D324A09C
:100B400000F056FA63E70000493243785F4D617365
:100B50007465725F6578616D706C65207374617225
:100B6000740D0A0014000020000008404932437848
:100B70005F57726974652066696E6973680D0A0053
:100B80000D0A493243785F52656164202066696EC0
:100B90006973680D0A0000003078253258202C0057
:100BA0000D0A000061646472203A203078253258C2
:100BB0002C20726567203A203078253258202C206E
:100BC00064617461202825326429203A200D0A00CE
:100BD0000D0A0D0A0D0A000070B55920264C162189
:100BE00088222060216022602368002BF9D0042035
:100BF000FFF750FB1020FFF71FFC00210720FFF735
:100C0000BBFB1E4D2846FFF72DFB032100220906E2
:100C10002846FFF7D9FB1A4D2846FFF723FB012191
:100C2000002249052846FFF7CFFB0720FFF71AFBF4
:100C3000A807C16BFF221204914333225204891882
:100C4000C163104D2846FFF70DFB07210022090262
:100C50002846FFF7B9FB0848F838FFF703FB0648BA
:100C6000C0380168090A09029931016000F02AF8C8
:100C70000020206070BD000000010040103D805F3A
:100C80000500405F0200805E0121020E89075118B5
:100C90008B680122824013438B6088689043886090
:100CA0007047000006498A691202FCD408600A28CD
:100CB00004D188690002FCD40D2008607047000050
:100CC00000000740F8B51D4D28691C4944071CA0C9
:100CD00000680090640F002040310968052212046A
:100CE000114216D1080301D5164800E016488A03C0
:100CF0000FD40A04920F6B469B5CCA058904D20D7F
:100D0000C90E891C8008921C59435043FFF71EFAF4
:100D100080000E4E022CB06002D00D49A000085891
:100D2000296A0907090F491CFFF710FA09493060C1
:100D30004A108018FFF70AFA7060F8BD0002004000
:100D400001020204001BB7000048E8010000002077
:100D50007016000040420F0010B559210A481623B2
:100D600088220160036002600468002CF9D0074902
:100D70000B680722120593430B600B6813430B604B
:100D80000021016010BD0000000100400002004091
:100D900010B50A4C7D220121D200C906204600F080
:100DA00049F8206821060843206088140449086037
:100DB000206889050843206010BD00002010054010
:100DC00000E100E010B588B00446202215496846CD
:100DD000FFF7D2F9144B144A14482033944202D13D
:100DE0004069000A0BE09C4202D14069000B06E01A
:100DF0000F4940698C4201D1000C00E0000D410711
:100E0000490F022904D088006946085808B010BD6F
:100E1000944201D09C4202D1FFF762FAF6E7FFF755
:100E20006FFAF3E7101700000000054000020040D1
:100E300000100540F7B517460646FFF7C3FF054605
:100E400000244008B84201D8022008E0394628466C
:100E5000FFF77CF9040E02D0611CFFF777F90199C6
:100E6000214331607060641C604301462846FFF7EF
:100E70006DF9FEBD0A488168C907C90F0FD001236B
:100E8000836008490888421C0A807D22D200904273
:100E900005D3002008800448816B59408163704766
:100EA00020100540100000204048004010B5064CBE
:100EB000E06911210902084202D110BD00F07CF85E
:100EC000A0694004FAD510BD0000074042680A43FB
:100ED00042607047F0B587B00F46044600252E46A5
:100EE00018222E496846FFF747F92D492D482E4A0A
:100EF0008C4205D14369006A5B015D0F000A0FE077
:100F00002A4B9C4206D14369006A5B005D0F0004D6
:100F1000060F07E0944205D1C369006B5B015D0FCA
:100F20000607360F002020630320E060A068204BF6
:100F30001840A060012D02D0042D04D00DE0FFF771
:100F4000EFF9019009E08C4201D0944202D1FFF701
:100F5000C7F901E0FFF7D4F90490002F1BD0A900D6
:100F600068464058711CFFF7F1F8054679084018AB
:100F70003946FFF7EBF80F49801E884207D9F90080
:100F800068183946FFF7E2F80009801E02E00321E5
:100F900009070843606207B0F0BD0000901600002A
:100FA00000000740000200400020074000100740FA
:100FB0000FFFF0FFFFFF000010B507480068C0B248
:100FC0007F2803D905A000F013F810BD3038C0B257
:100FD000FFF744FC10BD000000000740696E766119
:100FE0006C696420636F6D6D616E640D0A000000B2
:100FF0000FB410B503A9044B044A029800F024F87A
:1010000010BC08BC04B01847BD1400000C00002040
:1010100030B47446641E2578641CAB4200D21D4671
:10102000635D5B00E31830BC184702E008C8121F7C
:1010300008C1002AFAD170477047002001E001C1C1
:10104000121F002AFBD17047FFB591B00F4605462D
:10105000002606E025280AD0149A139990476D1CA3
:10106000761C28780028F5D1304615B0F0BD002454
:1010700000940121F34A029400E004436D1C2B7894
:101080000846203B98401042F7D128782A280ED0F5
:10109000022128780246303A092A15D8009A0A23F4
:1010A0005A43303A80180C436D1C0090F1E701CF91
:1010B0000090002805DA01204003044300984042D4
:1010C0000090022004436D1C28782E2815D104209E
:1010D000044368786D1C2A280AD101CF6D1C029048
:1010E0000BE002990A225143303940186D1C0290DE
:1010F0002878014630390929F3D928786C2810D08E
:1011000006DC4C281AD068280ED06A2817D104E0D3
:10111000742813D07A2812D110E00120400504432E
:101120000CE00121090501E0032109050C43697860
:10113000814203D10120000524186D1C6D1C287804
:1011400003906E281ED00CDC632831D004DC00280C
:101150008AD0582811D1B2E064287BD069280CD1FC
:1011600078E073282DD004DC6F2870D0702804D16B
:10117000A7E075286CD078286BD0149A1399904703
:10118000761C62E06002400F022807D003280AD0D4
:10119000042838680AD006603F1D56E03868F11709
:1011A00006604160F8E738680680F5E70670F3E707
:1011B0003878694608740020487404A80390012018
:1011C00003E0386803900020C0433F1D61070FD53E
:1011D000002101E00199491C029A0191914213DA20
:1011E0008142F7DB019A0399895C0029F2D10BE077
:1011F000002101E00199491C01918142FADB019A29
:101200000399895C0029F5D101990098139A401A35
:1012100000902146149B00F03BF901998019461873
:1012200007E0039803990078491C0391149A1399D5
:1012300090470198401E0190401CF2D12146149B1A
:10124000139A009800F014F986196D1C09E741E023
:1012500033E034E00A200021049005916002410F40
:10126000022905D001CFC2179446032905D007E013
:10127000FF1DFF08FF0003CF06E000B2C21794462F
:10128000042902D140B2C1178C4600226146944520
:1012900006DA0A460021404291418C462D2102E0A7
:1012A000210504D52B216A461176012103E0E107CF
:1012B00001D02021F7E7019154E00A200BE0102033
:1012C00009E0102004900021042004430820059127
:1012D000029003E008200021059104906002410F74
:1012E000022905D001CF00229446032906D006E04A
:1012F000FF1DFF08FF0003CF8C4603E080B20429E6
:1013000000D1C0B20021019121072BD5039970298A
:1013100006D0049A1021059B4A401A4305D00EE0DE
:1013200040216A461176012108E06146014306D05A
:1013300030216A4611760399517602210191049A6F
:101340000821059B4A401A430CD16146014301D153
:10135000610707D530216A46117601210191029972
:10136000491E02910399582904D037A103910FA96E
:101370000F910DE039A1F9E76146059B049AFEF74C
:101380000DFF039B8C469B5C0F9A521E0F921370AD
:1013900061460143F0D10F9807A9081A2030039045
:1013A000600704D5012000048443029801E0012075
:1013B00002900399884201DD401A00E000204118A4
:1013C0000290019809180098401A0090E00306D492
:1013D0002146149B139A009800F05AF886190020B1
:1013E000049008E006A9085C149A139990470498A1
:1013F000401C761C049001998842F3DBE0030CD575
:101400002146149B139A009800F042F8861904E0D4
:10141000149A302013999047761C0299481E029026
:101420000029F5DC08E00F980F990078491C0F910E
:10143000149A13999047761C0399481E039000292B
:10144000F1DCFBE609280100303132333435363720
:101450003839616263646566000000003031323300
:1014600034353637383941424344454600000000A0
:10147000F8B5044600251E461746880404D405E046
:1014800039462020B0476D1C641EF9D52846F8BDAA
:10149000FFB50446002581B01E46C80301D530279C
:1014A00000E02027880404D505E038460399B047BA
:1014B0006D1C641EF9D5284605B0F0BD10B5044674
:1014C000FFF7F0FB204610BDFFF786FB1A48FFF739
:1014D000DBFB1A4CE12149022046FFF7FBFCFEF73B
:1014E000E1FE014616A0FFF783FDFEF7E3FE01468D
:1014F0001AA0FFF77DFDFEF7E7FE01461DA0FFF7EE
:1015000077FDFEF7EDFE014620A0FFF771FDFEF727
:10151000F7FE014624A0FFF76BFD11212046FFF7DF
:10152000D5FC0120274900030860FFF773F9FEF797
:10153000DBFFFFF72DFCFEE7100000040000074072
:101540000D0A434C4B5F47657443505546726571B5
:10155000203A202538640D0A00000000434C4B5F00
:1015600047657448585446726571203A202538649E
:101570000D0A0000434C4B5F4765744C585446724B
:101580006571203A202538640D0A0000434C4B5FFA
:1015900047657450434C4B3046726571203A2025A4
:1015A00038640D0A00000000434C4B5F47657450DF
:1015B000434C4B3146726571203A202538640D0A40
:1015C0000000000000E100E010B50446016810A032
:1015D000FFF70EFD11A06168FFF70AFD12A0A168D8
:1015E000FFF706FD13A0E168FFF702FD14A02169D3
:1015F000FFF7FEFC15A06169FFF7FAFC16A0A169D0
:10160000FFF7F6FC17A0E169FFF7F2FC10BD000040
:10161000723020203D20307825780A007231202059
:101620003D20307825780A00723220203D20307825
:1016300025780A00723320203D20307825780A0072
:10164000723132203D20307825780A006C722020DB
:101650003D20307825780A00706320203D203078C6
:1016600025780A00707372203D20307825780A00B2
:101670000048E8010080000000D8B805009600008E
:10168000006CDC020000000000000000006CDC02C6
:101690000048E8010000000000800000006CDC024F
:1016A00000000000009600000048E8010000000073
:1016B00000800000006CDC020000000000960000CA
:1016C0000048E8010000000000800000006CDC021F
:1016D0000000000000960000000000000400000070
:1016E000080000000C0000000000000000000000E6
:1016F00000000000100000000000000004000000D6
:1017000008000000000000000400000008000000C5
:101710000048E80100800000000000000000000018
:10172000000000000096000000000000006CDC02D9
:1017300050170000000000202C0000002A100000BC
:101740007C1700002C000020040200003A1000006A
:1017500000D8B8056000000000D8B80500000000FF
:10176000000000000000023C0000000000000A0031
:0C1770000000000000000000000000006D
:04000005000000F106
:00000001FF
